{
  "contractName": "IssuerControlled",
  "abi": [
    {
      "constant": true,
      "inputs": [],
      "name": "issuer",
      "outputs": [
        {
          "name": "",
          "type": "address"
        }
      ],
      "payable": false,
      "stateMutability": "view",
      "type": "function"
    },
    {
      "inputs": [
        {
          "name": "_issuer",
          "type": "address"
        }
      ],
      "payable": false,
      "stateMutability": "nonpayable",
      "type": "constructor"
    }
  ],
  "bytecode": "0x608060405234801561001057600080fd5b5060405160208061016b83398101806040528101908080519060200190929190505050806000806101000a81548173ffffffffffffffffffffffffffffffffffffffff021916908373ffffffffffffffffffffffffffffffffffffffff1602179055505060e9806100826000396000f300608060405260043610603f576000357c0100000000000000000000000000000000000000000000000000000000900463ffffffff1680631d143848146044575b600080fd5b348015604f57600080fd5b5060566098565b604051808273ffffffffffffffffffffffffffffffffffffffff1673ffffffffffffffffffffffffffffffffffffffff16815260200191505060405180910390f35b6000809054906101000a900473ffffffffffffffffffffffffffffffffffffffff16815600a165627a7a72305820792b646f86f287e65129d1d8ebb16d888466928c7512559a0e3849ae936a81250029",
  "source": "pragma solidity ^0.4.24;\n\nimport \"../contracts/LDGRIssuer.sol\";\n\ncontract IssuerControlled {\n    address public issuer;\n\n    constructor(address _issuer) public {\n        issuer = _issuer;\n    }\n\n    // look up TransferAgent role of the issuer\n    modifier onlyIssuerTransferAgent() {\n        LDGRIssuer c = LDGRIssuer(issuer);\n        require(c.isTransferAgent(msg.sender), \"Only Transfer Agent can perform this action.\");\n        _;\n    }\n}",
  "sourcePath": "/Users/bmo/workspace/startengine/ldgr/v1/truffle/libs/IssuerControlled.sol",
  "compiler": {
    "name": "solc",
    "version": "0.4.24+commit.e67f0147.Emscripten.clang"
  },
  "schemaVersion": "2.0.1",
  "updatedAt": "2018-09-17T20:02:36.130Z"
}