{
  "contractName": "LDGRIssuer",
  "abi": [
    {
      "constant": true,
      "inputs": [],
      "name": "name",
      "outputs": [
        {
          "name": "",
          "type": "string"
        }
      ],
      "payable": false,
      "stateMutability": "view",
      "type": "function"
    },
    {
      "constant": true,
      "inputs": [],
      "name": "transferAgent",
      "outputs": [
        {
          "name": "",
          "type": "address"
        }
      ],
      "payable": false,
      "stateMutability": "view",
      "type": "function"
    },
    {
      "constant": true,
      "inputs": [],
      "name": "owner",
      "outputs": [
        {
          "name": "",
          "type": "address"
        }
      ],
      "payable": false,
      "stateMutability": "view",
      "type": "function"
    },
    {
      "constant": true,
      "inputs": [],
      "name": "stateFileNumber",
      "outputs": [
        {
          "name": "",
          "type": "string"
        }
      ],
      "payable": false,
      "stateMutability": "view",
      "type": "function"
    },
    {
      "constant": true,
      "inputs": [],
      "name": "stateOfIncorporation",
      "outputs": [
        {
          "name": "",
          "type": "string"
        }
      ],
      "payable": false,
      "stateMutability": "view",
      "type": "function"
    },
    {
      "constant": true,
      "inputs": [],
      "name": "physicalAddressOfOperation",
      "outputs": [
        {
          "name": "",
          "type": "string"
        }
      ],
      "payable": false,
      "stateMutability": "view",
      "type": "function"
    },
    {
      "constant": false,
      "inputs": [
        {
          "name": "_newOwner",
          "type": "address"
        }
      ],
      "name": "transferOwnership",
      "outputs": [],
      "payable": false,
      "stateMutability": "nonpayable",
      "type": "function"
    },
    {
      "constant": true,
      "inputs": [
        {
          "name": "_lookup",
          "type": "address"
        }
      ],
      "name": "isTransferAgent",
      "outputs": [
        {
          "name": "",
          "type": "bool"
        }
      ],
      "payable": false,
      "stateMutability": "view",
      "type": "function"
    },
    {
      "inputs": [
        {
          "name": "_initialOwner",
          "type": "address"
        },
        {
          "name": "_initialTransferAgent",
          "type": "address"
        },
        {
          "name": "_name",
          "type": "string"
        },
        {
          "name": "_stateFileNumber",
          "type": "string"
        },
        {
          "name": "_stateOfIncorporation",
          "type": "string"
        },
        {
          "name": "_physicalAddressOfOperation",
          "type": "string"
        }
      ],
      "payable": false,
      "stateMutability": "nonpayable",
      "type": "constructor"
    },
    {
      "anonymous": false,
      "inputs": [
        {
          "indexed": true,
          "name": "newSecurity",
          "type": "address"
        },
        {
          "indexed": false,
          "name": "name",
          "type": "string"
        },
        {
          "indexed": false,
          "name": "symbol",
          "type": "string"
        }
      ],
      "name": "CreateSecurity",
      "type": "event"
    },
    {
      "anonymous": false,
      "inputs": [
        {
          "indexed": true,
          "name": "previousTransferAgent",
          "type": "address"
        },
        {
          "indexed": true,
          "name": "newTransferAgent",
          "type": "address"
        }
      ],
      "name": "TransferAgentUpdated",
      "type": "event"
    },
    {
      "anonymous": false,
      "inputs": [
        {
          "indexed": false,
          "name": "previousPhysicalAddressOfOperation",
          "type": "string"
        },
        {
          "indexed": false,
          "name": "newPhysicalAddressOfOperation",
          "type": "string"
        }
      ],
      "name": "PhysicalAddressOfOperationUpdated",
      "type": "event"
    },
    {
      "anonymous": false,
      "inputs": [
        {
          "indexed": true,
          "name": "previousOwner",
          "type": "address"
        },
        {
          "indexed": true,
          "name": "newOwner",
          "type": "address"
        }
      ],
      "name": "OwnershipTransferred",
      "type": "event"
    },
    {
      "constant": false,
      "inputs": [
        {
          "name": "_newTransferAgent",
          "type": "address"
        }
      ],
      "name": "setTransferAgent",
      "outputs": [],
      "payable": false,
      "stateMutability": "nonpayable",
      "type": "function"
    },
    {
      "constant": false,
      "inputs": [
        {
          "name": "_newPhysicalAddressOfOperation",
          "type": "string"
        }
      ],
      "name": "setPhysicalAddressOfOperation",
      "outputs": [],
      "payable": false,
      "stateMutability": "nonpayable",
      "type": "function"
    },
    {
      "constant": true,
      "inputs": [],
      "name": "getSecurities",
      "outputs": [
        {
          "name": "",
          "type": "address[]"
        }
      ],
      "payable": false,
      "stateMutability": "view",
      "type": "function"
    },
    {
      "constant": false,
      "inputs": [
        {
          "name": "_name",
          "type": "string"
        },
        {
          "name": "_symbol",
          "type": "string"
        }
      ],
      "name": "createSecurity",
      "outputs": [
        {
          "name": "",
          "type": "address"
        }
      ],
      "payable": false,
      "stateMutability": "nonpayable",
      "type": "function"
    }
  ],
  "bytecode": "0x60806040523480156200001157600080fd5b5060405162004cf238038062004cf28339810180604052810190808051906020019092919080519060200190929190805182019291906020018051820192919060200180518201929190602001805182019291905050508486806000806101000a81548173ffffffffffffffffffffffffffffffffffffffff021916908373ffffffffffffffffffffffffffffffffffffffff1602179055505080600160006101000a81548173ffffffffffffffffffffffffffffffffffffffff021916908373ffffffffffffffffffffffffffffffffffffffff160217905550508360029080519060200190620001059291906200015d565b5082600390805190602001906200011e9291906200015d565b508160049080519060200190620001379291906200015d565b508060059080519060200190620001509291906200015d565b505050505050506200020c565b828054600181600116156101000203166002900490600052602060002090601f016020900481019282601f10620001a057805160ff1916838001178555620001d1565b82800160010185558215620001d1579182015b82811115620001d0578251825591602001919060010190620001b3565b5b509050620001e09190620001e4565b5090565b6200020991905b8082111562000205576000816000905550600101620001eb565b5090565b90565b614ad6806200021c6000396000f300608060405260043610620000c7576000357c0100000000000000000000000000000000000000000000000000000000900463ffffffff16806306fdde0314620000cc57806308053fd914620001625780635f6d9e5b14620001d3578063760cd8e1146200023f5780638c6a244c14620002995780638da5cb5b14620002df578063ac2b6d431462000339578063bca773b214620003cf578063ccf34c491462000465578063ddcdb95914620004fb578063f2fde38b14620005ed578063fb99b86d1462000633575b600080fd5b348015620000d957600080fd5b50620000e462000691565b6040518080602001828103825283818151815260200191508051906020019080838360005b838110156200012657808201518184015260208101905062000109565b50505050905090810190601f168015620001545780820380516001836020036101000a031916815260200191505b509250505060405180910390f35b3480156200016f57600080fd5b506200017a62000733565b6040518080602001828103825283818151815260200191508051906020019060200280838360005b83811015620001bf578082015181840152602081019050620001a2565b505050509050019250505060405180910390f35b348015620001e057600080fd5b506200023d600480360381019080803590602001908201803590602001908080601f0160208091040260200160405190810160405280939291908181526020018383808284378201915050505050509192919290505050620007c3565b005b3480156200024c57600080fd5b5062000257620008bc565b604051808273ffffffffffffffffffffffffffffffffffffffff1673ffffffffffffffffffffffffffffffffffffffff16815260200191505060405180910390f35b348015620002a657600080fd5b50620002dd600480360381019080803573ffffffffffffffffffffffffffffffffffffffff169060200190929190505050620008e2565b005b348015620002ec57600080fd5b50620002f7620009db565b604051808273ffffffffffffffffffffffffffffffffffffffff1673ffffffffffffffffffffffffffffffffffffffff16815260200191505060405180910390f35b3480156200034657600080fd5b506200035162000a00565b6040518080602001828103825283818151815260200191508051906020019080838360005b838110156200039357808201518184015260208101905062000376565b50505050905090810190601f168015620003c15780820380516001836020036101000a031916815260200191505b509250505060405180910390f35b348015620003dc57600080fd5b50620003e762000aa2565b6040518080602001828103825283818151815260200191508051906020019080838360005b83811015620004295780820151818401526020810190506200040c565b50505050905090810190601f168015620004575780820380516001836020036101000a031916815260200191505b509250505060405180910390f35b3480156200047257600080fd5b506200047d62000b44565b6040518080602001828103825283818151815260200191508051906020019080838360005b83811015620004bf578082015181840152602081019050620004a2565b50505050905090810190601f168015620004ed5780820380516001836020036101000a031916815260200191505b509250505060405180910390f35b3480156200050857600080fd5b50620005ab600480360381019080803590602001908201803590602001908080601f0160208091040260200160405190810160405280939291908181526020018383808284378201915050505050509192919290803590602001908201803590602001908080601f016020809104026020016040519081016040528093929190818152602001838380828437820191505050505050919291929050505062000be6565b604051808273ffffffffffffffffffffffffffffffffffffffff1673ffffffffffffffffffffffffffffffffffffffff16815260200191505060405180910390f35b348015620005fa57600080fd5b5062000631600480360381019080803573ffffffffffffffffffffffffffffffffffffffff16906020019092919050505062000ce8565b005b3480156200064057600080fd5b5062000677600480360381019080803573ffffffffffffffffffffffffffffffffffffffff16906020019092919050505062000de1565b604051808215151515815260200191505060405180910390f35b60028054600181600116156101000203166002900480601f0160208091040260200160405190810160405280929190818152602001828054600181600116156101000203166002900480156200072b5780601f10620006ff576101008083540402835291602001916200072b565b820191906000526020600020905b8154815290600101906020018083116200070d57829003601f168201915b505050505081565b60606006805480602002602001604051908101604052809291908181526020018280548015620007b957602002820191906000526020600020905b8160009054906101000a900473ffffffffffffffffffffffffffffffffffffffff1673ffffffffffffffffffffffffffffffffffffffff16815260200190600101908083116200076e575b5050505050905090565b6000809054906101000a900473ffffffffffffffffffffffffffffffffffffffff1673ffffffffffffffffffffffffffffffffffffffff163373ffffffffffffffffffffffffffffffffffffffff16141515620008ae576040517f08c379a000000000000000000000000000000000000000000000000000000000815260040180806020018281038252602b8152602001807f4f6e6c792063757272656e74206f776e65722063616e20706572666f726d207481526020017f68697320616374696f6e2e00000000000000000000000000000000000000000081525060400191505060405180910390fd5b620008b98162000e3b565b50565b600160009054906101000a900473ffffffffffffffffffffffffffffffffffffffff1681565b6000809054906101000a900473ffffffffffffffffffffffffffffffffffffffff1673ffffffffffffffffffffffffffffffffffffffff163373ffffffffffffffffffffffffffffffffffffffff16141515620009cd576040517f08c379a000000000000000000000000000000000000000000000000000000000815260040180806020018281038252602b8152602001807f4f6e6c792063757272656e74206f776e65722063616e20706572666f726d207481526020017f68697320616374696f6e2e00000000000000000000000000000000000000000081525060400191505060405180910390fd5b620009d88162000f85565b50565b6000809054906101000a900473ffffffffffffffffffffffffffffffffffffffff1681565b60038054600181600116156101000203166002900480601f01602080910402602001604051908101604052809291908181526020018280546001816001161561010002031660029004801562000a9a5780601f1062000a6e5761010080835404028352916020019162000a9a565b820191906000526020600020905b81548152906001019060200180831162000a7c57829003601f168201915b505050505081565b60048054600181600116156101000203166002900480601f01602080910402602001604051908101604052809291908181526020018280546001816001161561010002031660029004801562000b3c5780601f1062000b105761010080835404028352916020019162000b3c565b820191906000526020600020905b81548152906001019060200180831162000b1e57829003601f168201915b505050505081565b60058054600181600116156101000203166002900480601f01602080910402602001604051908101604052809291908181526020018280546001816001161561010002031660029004801562000bde5780601f1062000bb25761010080835404028352916020019162000bde565b820191906000526020600020905b81548152906001019060200180831162000bc057829003601f168201915b505050505081565b6000600160009054906101000a900473ffffffffffffffffffffffffffffffffffffffff1673ffffffffffffffffffffffffffffffffffffffff163373ffffffffffffffffffffffffffffffffffffffff1614151562000cd4576040517f08c379a000000000000000000000000000000000000000000000000000000000815260040180806020018281038252602c8152602001807f4f6e6c79205472616e73666572204167656e742063616e20706572666f726d2081526020017f7468697320616374696f6e2e000000000000000000000000000000000000000081525060400191505060405180910390fd5b62000ce08383620010eb565b905092915050565b6000809054906101000a900473ffffffffffffffffffffffffffffffffffffffff1673ffffffffffffffffffffffffffffffffffffffff163373ffffffffffffffffffffffffffffffffffffffff1614151562000dd3576040517f08c379a000000000000000000000000000000000000000000000000000000000815260040180806020018281038252602b8152602001807f4f6e6c792063757272656e74206f776e65722063616e20706572666f726d207481526020017f68697320616374696f6e2e00000000000000000000000000000000000000000081525060400191505060405180910390fd5b62000dde81620013c5565b50565b6000600160009054906101000a900473ffffffffffffffffffffffffffffffffffffffff1673ffffffffffffffffffffffffffffffffffffffff168273ffffffffffffffffffffffffffffffffffffffff16149050919050565b7fcc0e53db9e4ba2f55147ebc43d76bd7a47719224ae8b42196e246bab64b78ea360058260405180806020018060200183810383528581815460018160011615610100020316600290048152602001915080546001816001161561010002031660029004801562000ef05780601f1062000ec45761010080835404028352916020019162000ef0565b820191906000526020600020905b81548152906001019060200180831162000ed257829003601f168201915b5050838103825284818151815260200191508051906020019080838360005b8381101562000f2c57808201518184015260208101905062000f0f565b50505050905090810190601f16801562000f5a5780820380516001836020036101000a031916815260200191505b5094505050505060405180910390a1806005908051906020019062000f8192919062001529565b5050565b600073ffffffffffffffffffffffffffffffffffffffff168173ffffffffffffffffffffffffffffffffffffffff16141515156200102b576040517f08c379a00000000000000000000000000000000000000000000000000000000081526004018080602001828103825260148152602001807f416464726573732063616e6e6f7420626520302e00000000000000000000000081525060200191505060405180910390fd5b8073ffffffffffffffffffffffffffffffffffffffff16600160009054906101000a900473ffffffffffffffffffffffffffffffffffffffff1673ffffffffffffffffffffffffffffffffffffffff167f35e89afcbe61fb77843ff4fb292fdc4b00f10009912cacbb48c537c93c84eccb60405160405180910390a380600160006101000a81548173ffffffffffffffffffffffffffffffffffffffff021916908373ffffffffffffffffffffffffffffffffffffffff16021790555050565b600080308484620010fb620015b0565b808473ffffffffffffffffffffffffffffffffffffffff1673ffffffffffffffffffffffffffffffffffffffff1681526020018060200180602001838103835285818151815260200191508051906020019080838360005b838110156200117057808201518184015260208101905062001153565b50505050905090810190601f1680156200119e5780820380516001836020036101000a031916815260200191505b50838103825284818151815260200191508051906020019080838360005b83811015620011d9578082015181840152602081019050620011bc565b50505050905090810190601f168015620012075780820380516001836020036101000a031916815260200191505b5095505050505050604051809103906000f0801580156200122c573d6000803e3d6000fd5b50905060068190806001815401808255809150509060018203906000526020600020016000909192909190916101000a81548173ffffffffffffffffffffffffffffffffffffffff021916908373ffffffffffffffffffffffffffffffffffffffff160217905550508073ffffffffffffffffffffffffffffffffffffffff167f8ea1b3f74f58164515657c2235172833f69c7d6647c52662d57831f415d604508585604051808060200180602001838103835285818151815260200191508051906020019080838360005b8381101562001315578082015181840152602081019050620012f8565b50505050905090810190601f168015620013435780820380516001836020036101000a031916815260200191505b50838103825284818151815260200191508051906020019080838360005b838110156200137e57808201518184015260208101905062001361565b50505050905090810190601f168015620013ac5780820380516001836020036101000a031916815260200191505b5094505050505060405180910390a28091505092915050565b600073ffffffffffffffffffffffffffffffffffffffff168173ffffffffffffffffffffffffffffffffffffffff16141515156200146b576040517f08c379a00000000000000000000000000000000000000000000000000000000081526004018080602001828103825260198152602001807f4e6577206f776e65722063616e6e6f74206265206e756c6c2e0000000000000081525060200191505060405180910390fd5b8073ffffffffffffffffffffffffffffffffffffffff166000809054906101000a900473ffffffffffffffffffffffffffffffffffffffff1673ffffffffffffffffffffffffffffffffffffffff167f8be0079c531659141344cd1fd0a4f28419497f9722a3daafe3b4186f6b6457e060405160405180910390a3806000806101000a81548173ffffffffffffffffffffffffffffffffffffffff021916908373ffffffffffffffffffffffffffffffffffffffff16021790555050565b828054600181600116156101000203166002900490600052602060002090601f016020900481019282601f106200156c57805160ff19168380011785556200159d565b828001600101855582156200159d579182015b828111156200159c5782518255916020019190600101906200157f565b5b509050620015ac9190620015c1565b5090565b6040516134c180620015ea83390190565b620015e691905b80821115620015e2576000816000905550600101620015c8565b5090565b905600608060405234801561001057600080fd5b50604051620034c1380380620034c183398101806040528101908080519060200190929190805182019291906020018051820192919050505082806000806101000a81548173ffffffffffffffffffffffffffffffffffffffff021916908373ffffffffffffffffffffffffffffffffffffffff1602179055505081600190805190602001906100a192919061032f565b5080600290805190602001906100b892919061032f565b5082828260006100c66103af565b808573ffffffffffffffffffffffffffffffffffffffff1673ffffffffffffffffffffffffffffffffffffffff1681526020018060200180602001848152602001838103835286818151815260200191508051906020019080838360005b8381101561013f578082015181840152602081019050610124565b50505050905090810190601f16801561016c5780820380516001836020036101000a031916815260200191505b50838103825285818151815260200191508051906020019080838360005b838110156101a557808201518184015260208101905061018a565b50505050905090810190601f1680156101d25780820380516001836020036101000a031916815260200191505b509650505050505050604051809103906000f0801580156101f7573d6000803e3d6000fd5b50600360006101000a81548173ffffffffffffffffffffffffffffffffffffffff021916908373ffffffffffffffffffffffffffffffffffffffff1602179055506004600360009054906101000a900473ffffffffffffffffffffffffffffffffffffffff1690806001815401808255809150509060018203906000526020600020016000909192909190916101000a81548173ffffffffffffffffffffffffffffffffffffffff021916908373ffffffffffffffffffffffffffffffffffffffff160217905550506000600360009054906101000a900473ffffffffffffffffffffffffffffffffffffffff1673ffffffffffffffffffffffffffffffffffffffff167fb378e89b40ac5bbe0e2241b596fbe1adc3cf1fb7c982aa1b4560165cf264ee9360405160405180910390a35050506103e5565b828054600181600116156101000203166002900490600052602060002090601f016020900481019282601f1061037057805160ff191683800117855561039e565b8280016001018555821561039e579182015b8281111561039d578251825591602001919060010190610382565b5b5090506103ab91906103c0565b5090565b6040516113ae806200211383390190565b6103e291905b808211156103de5760008160009055506001016103c6565b5090565b90565b611d1e80620003f56000396000f300608060405260043610610078576000357c0100000000000000000000000000000000000000000000000000000000900463ffffffff16806306fdde031461007d5780631d1438481461010d5780632a5c792a146101645780632d571cc4146101d057806395d89b411461023d578063fc0c546a146102cd575b600080fd5b34801561008957600080fd5b50610092610324565b6040518080602001828103825283818151815260200191508051906020019080838360005b838110156100d25780820151818401526020810190506100b7565b50505050905090810190601f1680156100ff5780820380516001836020036101000a031916815260200191505b509250505060405180910390f35b34801561011957600080fd5b506101226103c2565b604051808273ffffffffffffffffffffffffffffffffffffffff1673ffffffffffffffffffffffffffffffffffffffff16815260200191505060405180910390f35b34801561017057600080fd5b506101796103e7565b6040518080602001828103825283818151815260200191508051906020019060200280838360005b838110156101bc5780820151818401526020810190506101a1565b505050509050019250505060405180910390f35b3480156101dc57600080fd5b506101fb60048036038101908080359060200190929190505050610475565b604051808273ffffffffffffffffffffffffffffffffffffffff1673ffffffffffffffffffffffffffffffffffffffff16815260200191505060405180910390f35b34801561024957600080fd5b5061025261061d565b6040518080602001828103825283818151815260200191508051906020019080838360005b83811015610292578082015181840152602081019050610277565b50505050905090810190601f1680156102bf5780820380516001836020036101000a031916815260200191505b509250505060405180910390f35b3480156102d957600080fd5b506102e26106bb565b604051808273ffffffffffffffffffffffffffffffffffffffff1673ffffffffffffffffffffffffffffffffffffffff16815260200191505060405180910390f35b60018054600181600116156101000203166002900480601f0160208091040260200160405190810160405280929190818152602001828054600181600116156101000203166002900480156103ba5780601f1061038f576101008083540402835291602001916103ba565b820191906000526020600020905b81548152906001019060200180831161039d57829003601f168201915b505050505081565b6000809054906101000a900473ffffffffffffffffffffffffffffffffffffffff1681565b6060600480548060200260200160405190810160405280929190818152602001828054801561046b57602002820191906000526020600020905b8160009054906101000a900473ffffffffffffffffffffffffffffffffffffffff1673ffffffffffffffffffffffffffffffffffffffff1681526020019060010190808311610421575b5050505050905090565b6000806000809054906101000a900473ffffffffffffffffffffffffffffffffffffffff1690508073ffffffffffffffffffffffffffffffffffffffff1663fb99b86d336040518263ffffffff167c0100000000000000000000000000000000000000000000000000000000028152600401808273ffffffffffffffffffffffffffffffffffffffff1673ffffffffffffffffffffffffffffffffffffffff168152602001915050602060405180830381600087803b15801561053757600080fd5b505af115801561054b573d6000803e3d6000fd5b505050506040513d602081101561056157600080fd5b8101908080519060200190929190505050151561060c576040517f08c379a000000000000000000000000000000000000000000000000000000000815260040180806020018281038252602c8152602001807f4f6e6c79205472616e73666572204167656e742063616e20706572666f726d2081526020017f7468697320616374696f6e2e000000000000000000000000000000000000000081525060400191505060405180910390fd5b610615836106e1565b915050919050565b60028054600181600116156101000203166002900480601f0160208091040260200160405190810160405280929190818152602001828054600181600116156101000203166002900480156106b35780601f10610688576101008083540402835291602001916106b3565b820191906000526020600020905b81548152906001019060200180831161069657829003601f168201915b505050505081565b600360009054906101000a900473ffffffffffffffffffffffffffffffffffffffff1681565b6000806000809054906101000a900473ffffffffffffffffffffffffffffffffffffffff166001600285610713610934565b808573ffffffffffffffffffffffffffffffffffffffff1673ffffffffffffffffffffffffffffffffffffffff16815260200180602001806020018481526020018381038352868181546001816001161561010002031660029004815260200191508054600181600116156101000203166002900480156107d55780601f106107aa576101008083540402835291602001916107d5565b820191906000526020600020905b8154815290600101906020018083116107b857829003601f168201915b50508381038252858181546001816001161561010002031660029004815260200191508054600181600116156101000203166002900480156108585780601f1061082d57610100808354040283529160200191610858565b820191906000526020600020905b81548152906001019060200180831161083b57829003601f168201915b50509650505050505050604051809103906000f08015801561087e573d6000803e3d6000fd5b50905060048190806001815401808255809150509060018203906000526020600020016000909192909190916101000a81548173ffffffffffffffffffffffffffffffffffffffff021916908373ffffffffffffffffffffffffffffffffffffffff16021790555050828173ffffffffffffffffffffffffffffffffffffffff167fb378e89b40ac5bbe0e2241b596fbe1adc3cf1fb7c982aa1b4560165cf264ee9360405160405180910390a380915050919050565b6040516113ae8061094583390190560060806040523480156200001157600080fd5b50604051620013ae380380620013ae8339810180604052810190808051906020019092919080518201929190602001805182019291906020018051906020019092919050505083806000806101000a81548173ffffffffffffffffffffffffffffffffffffffff021916908373ffffffffffffffffffffffffffffffffffffffff160217905550508260019080519060200190620000b1929190620000f8565b508160029080519060200190620000ca929190620000f8565b50806003819055506000600660006101000a81548160ff021916908360ff16021790555050505050620001a7565b828054600181600116156101000203166002900490600052602060002090601f016020900481019282601f106200013b57805160ff19168380011785556200016c565b828001600101855582156200016c579182015b828111156200016b5782518255916020019190600101906200014e565b5b5090506200017b91906200017f565b5090565b620001a491905b80821115620001a057600081600090555060010162000186565b5090565b90565b6111f780620001b76000396000f3006080604052600436106100a4576000357c0100000000000000000000000000000000000000000000000000000000900463ffffffff16806306fdde03146100a957806318160ddd146101395780631d1438481461016457806323b872dd146101bb578063313ce5671461024057806340c10f191461027157806370a08231146102d657806379cc67901461032d57806395d89b4114610392578063e65e31ab14610422575b600080fd5b3480156100b557600080fd5b506100be61044d565b6040518080602001828103825283818151815260200191508051906020019080838360005b838110156100fe5780820151818401526020810190506100e3565b50505050905090810190601f16801561012b5780820380516001836020036101000a031916815260200191505b509250505060405180910390f35b34801561014557600080fd5b5061014e6104eb565b6040518082815260200191505060405180910390f35b34801561017057600080fd5b506101796104f1565b604051808273ffffffffffffffffffffffffffffffffffffffff1673ffffffffffffffffffffffffffffffffffffffff16815260200191505060405180910390f35b3480156101c757600080fd5b50610226600480360381019080803573ffffffffffffffffffffffffffffffffffffffff169060200190929190803573ffffffffffffffffffffffffffffffffffffffff16906020019092919080359060200190929190505050610516565b604051808215151515815260200191505060405180910390f35b34801561024c57600080fd5b506102556109a4565b604051808260ff1660ff16815260200191505060405180910390f35b34801561027d57600080fd5b506102bc600480360381019080803573ffffffffffffffffffffffffffffffffffffffff169060200190929190803590602001909291905050506109b7565b604051808215151515815260200191505060405180910390f35b3480156102e257600080fd5b50610317600480360381019080803573ffffffffffffffffffffffffffffffffffffffff169060200190929190505050610d14565b6040518082815260200191505060405180910390f35b34801561033957600080fd5b50610378600480360381019080803573ffffffffffffffffffffffffffffffffffffffff16906020019092919080359060200190929190505050610d5d565b604051808215151515815260200191505060405180910390f35b34801561039e57600080fd5b506103a76110f2565b6040518080602001828103825283818151815260200191508051906020019080838360005b838110156103e75780820151818401526020810190506103cc565b50505050905090810190601f1680156104145780820380516001836020036101000a031916815260200191505b509250505060405180910390f35b34801561042e57600080fd5b50610437611190565b6040518082815260200191505060405180910390f35b60018054600181600116156101000203166002900480601f0160208091040260200160405190810160405280929190818152602001828054600181600116156101000203166002900480156104e35780601f106104b8576101008083540402835291602001916104e3565b820191906000526020600020905b8154815290600101906020018083116104c657829003601f168201915b505050505081565b60055481565b6000809054906101000a900473ffffffffffffffffffffffffffffffffffffffff1681565b6000806000809054906101000a900473ffffffffffffffffffffffffffffffffffffffff1690508073ffffffffffffffffffffffffffffffffffffffff1663fb99b86d336040518263ffffffff167c0100000000000000000000000000000000000000000000000000000000028152600401808273ffffffffffffffffffffffffffffffffffffffff1673ffffffffffffffffffffffffffffffffffffffff168152602001915050602060405180830381600087803b1580156105d857600080fd5b505af11580156105ec573d6000803e3d6000fd5b505050506040513d602081101561060257600080fd5b810190808051906020019092919050505015156106ad576040517f08c379a000000000000000000000000000000000000000000000000000000000815260040180806020018281038252602c8152602001807f4f6e6c79205472616e73666572204167656e742063616e20706572666f726d2081526020017f7468697320616374696f6e2e000000000000000000000000000000000000000081525060400191505060405180910390fd5b600460008673ffffffffffffffffffffffffffffffffffffffff1673ffffffffffffffffffffffffffffffffffffffff168152602001908152602001600020548311151515610764576040517f08c379a00000000000000000000000000000000000000000000000000000000081526004018080602001828103825260138152602001807f4e6f7420656e6f7567682062616c616e63652e0000000000000000000000000081525060200191505060405180910390fd5b600073ffffffffffffffffffffffffffffffffffffffff168473ffffffffffffffffffffffffffffffffffffffff1614151515610809576040517f08c379a00000000000000000000000000000000000000000000000000000000081526004018080602001828103825260118152602001807f5f746f206973206e6f742076616c69642e00000000000000000000000000000081525060200191505060405180910390fd5b61085b83600460008873ffffffffffffffffffffffffffffffffffffffff1673ffffffffffffffffffffffffffffffffffffffff1681526020019081526020016000205461119690919063ffffffff16565b600460008773ffffffffffffffffffffffffffffffffffffffff1673ffffffffffffffffffffffffffffffffffffffff168152602001908152602001600020819055506108f083600460008773ffffffffffffffffffffffffffffffffffffffff1673ffffffffffffffffffffffffffffffffffffffff168152602001908152602001600020546111af90919063ffffffff16565b600460008673ffffffffffffffffffffffffffffffffffffffff1673ffffffffffffffffffffffffffffffffffffffff168152602001908152602001600020819055508373ffffffffffffffffffffffffffffffffffffffff168573ffffffffffffffffffffffffffffffffffffffff167fddf252ad1be2c89b69c2b068fc378daa952ba7f163c4a11628f55a4df523b3ef856040518082815260200191505060405180910390a360019150509392505050565b600660009054906101000a900460ff1681565b6000806000809054906101000a900473ffffffffffffffffffffffffffffffffffffffff1690508073ffffffffffffffffffffffffffffffffffffffff1663fb99b86d336040518263ffffffff167c0100000000000000000000000000000000000000000000000000000000028152600401808273ffffffffffffffffffffffffffffffffffffffff1673ffffffffffffffffffffffffffffffffffffffff168152602001915050602060405180830381600087803b158015610a7957600080fd5b505af1158015610a8d573d6000803e3d6000fd5b505050506040513d6020811015610aa357600080fd5b81019080805190602001909291905050501515610b4e576040517f08c379a000000000000000000000000000000000000000000000000000000000815260040180806020018281038252602c8152602001807f4f6e6c79205472616e73666572204167656e742063616e20706572666f726d2081526020017f7468697320616374696f6e2e000000000000000000000000000000000000000081525060400191505060405180910390fd5b600073ffffffffffffffffffffffffffffffffffffffff168473ffffffffffffffffffffffffffffffffffffffff1614151515610bf3576040517f08c379a00000000000000000000000000000000000000000000000000000000081526004018080602001828103825260118152602001807f5f746f206973206e6f742076616c69642e00000000000000000000000000000081525060200191505060405180910390fd5b610c4583600460008773ffffffffffffffffffffffffffffffffffffffff1673ffffffffffffffffffffffffffffffffffffffff168152602001908152602001600020546111af90919063ffffffff16565b600460008673ffffffffffffffffffffffffffffffffffffffff1673ffffffffffffffffffffffffffffffffffffffff16815260200190815260200160002081905550610c9d836005546111af90919063ffffffff16565b6005819055508373ffffffffffffffffffffffffffffffffffffffff16600073ffffffffffffffffffffffffffffffffffffffff167fddf252ad1be2c89b69c2b068fc378daa952ba7f163c4a11628f55a4df523b3ef856040518082815260200191505060405180910390a3600191505092915050565b6000600460008373ffffffffffffffffffffffffffffffffffffffff1673ffffffffffffffffffffffffffffffffffffffff168152602001908152602001600020549050919050565b6000806000809054906101000a900473ffffffffffffffffffffffffffffffffffffffff1690508073ffffffffffffffffffffffffffffffffffffffff1663fb99b86d336040518263ffffffff167c0100000000000000000000000000000000000000000000000000000000028152600401808273ffffffffffffffffffffffffffffffffffffffff1673ffffffffffffffffffffffffffffffffffffffff168152602001915050602060405180830381600087803b158015610e1f57600080fd5b505af1158015610e33573d6000803e3d6000fd5b505050506040513d6020811015610e4957600080fd5b81019080805190602001909291905050501515610ef4576040517f08c379a000000000000000000000000000000000000000000000000000000000815260040180806020018281038252602c8152602001807f4f6e6c79205472616e73666572204167656e742063616e20706572666f726d2081526020017f7468697320616374696f6e2e000000000000000000000000000000000000000081525060400191505060405180910390fd5b600460008573ffffffffffffffffffffffffffffffffffffffff1673ffffffffffffffffffffffffffffffffffffffff168152602001908152602001600020548311151515610fd1576040517f08c379a00000000000000000000000000000000000000000000000000000000081526004018080602001828103825260268152602001807f5f76616c75652063616e6e6f742062652067726561746572207468616e20626181526020017f6c616e63652e000000000000000000000000000000000000000000000000000081525060400191505060405180910390fd5b61102383600460008773ffffffffffffffffffffffffffffffffffffffff1673ffffffffffffffffffffffffffffffffffffffff1681526020019081526020016000205461119690919063ffffffff16565b600460008673ffffffffffffffffffffffffffffffffffffffff1673ffffffffffffffffffffffffffffffffffffffff1681526020019081526020016000208190555061107b8360055461119690919063ffffffff16565b600581905550600073ffffffffffffffffffffffffffffffffffffffff168473ffffffffffffffffffffffffffffffffffffffff167fddf252ad1be2c89b69c2b068fc378daa952ba7f163c4a11628f55a4df523b3ef856040518082815260200191505060405180910390a3600191505092915050565b60028054600181600116156101000203166002900480601f0160208091040260200160405190810160405280929190818152602001828054600181600116156101000203166002900480156111885780601f1061115d57610100808354040283529160200191611188565b820191906000526020600020905b81548152906001019060200180831161116b57829003601f168201915b505050505081565b60035481565b60008282111515156111a457fe5b818303905092915050565b600081830190508281101515156111c257fe5b809050929150505600a165627a7a723058206e75ac95ffab9c36b1ad5d5d2946b5f1513e57d1be7b980a52a04723057b03d60029a165627a7a7230582012472d278438064e08615038c2d4196f499ccfd564315aea0a7f1a28dcc93d91002960806040523480156200001157600080fd5b50604051620013ae380380620013ae8339810180604052810190808051906020019092919080518201929190602001805182019291906020018051906020019092919050505083806000806101000a81548173ffffffffffffffffffffffffffffffffffffffff021916908373ffffffffffffffffffffffffffffffffffffffff160217905550508260019080519060200190620000b1929190620000f8565b508160029080519060200190620000ca929190620000f8565b50806003819055506000600660006101000a81548160ff021916908360ff16021790555050505050620001a7565b828054600181600116156101000203166002900490600052602060002090601f016020900481019282601f106200013b57805160ff19168380011785556200016c565b828001600101855582156200016c579182015b828111156200016b5782518255916020019190600101906200014e565b5b5090506200017b91906200017f565b5090565b620001a491905b80821115620001a057600081600090555060010162000186565b5090565b90565b6111f780620001b76000396000f3006080604052600436106100a4576000357c0100000000000000000000000000000000000000000000000000000000900463ffffffff16806306fdde03146100a957806318160ddd146101395780631d1438481461016457806323b872dd146101bb578063313ce5671461024057806340c10f191461027157806370a08231146102d657806379cc67901461032d57806395d89b4114610392578063e65e31ab14610422575b600080fd5b3480156100b557600080fd5b506100be61044d565b6040518080602001828103825283818151815260200191508051906020019080838360005b838110156100fe5780820151818401526020810190506100e3565b50505050905090810190601f16801561012b5780820380516001836020036101000a031916815260200191505b509250505060405180910390f35b34801561014557600080fd5b5061014e6104eb565b6040518082815260200191505060405180910390f35b34801561017057600080fd5b506101796104f1565b604051808273ffffffffffffffffffffffffffffffffffffffff1673ffffffffffffffffffffffffffffffffffffffff16815260200191505060405180910390f35b3480156101c757600080fd5b50610226600480360381019080803573ffffffffffffffffffffffffffffffffffffffff169060200190929190803573ffffffffffffffffffffffffffffffffffffffff16906020019092919080359060200190929190505050610516565b604051808215151515815260200191505060405180910390f35b34801561024c57600080fd5b506102556109a4565b604051808260ff1660ff16815260200191505060405180910390f35b34801561027d57600080fd5b506102bc600480360381019080803573ffffffffffffffffffffffffffffffffffffffff169060200190929190803590602001909291905050506109b7565b604051808215151515815260200191505060405180910390f35b3480156102e257600080fd5b50610317600480360381019080803573ffffffffffffffffffffffffffffffffffffffff169060200190929190505050610d14565b6040518082815260200191505060405180910390f35b34801561033957600080fd5b50610378600480360381019080803573ffffffffffffffffffffffffffffffffffffffff16906020019092919080359060200190929190505050610d5d565b604051808215151515815260200191505060405180910390f35b34801561039e57600080fd5b506103a76110f2565b6040518080602001828103825283818151815260200191508051906020019080838360005b838110156103e75780820151818401526020810190506103cc565b50505050905090810190601f1680156104145780820380516001836020036101000a031916815260200191505b509250505060405180910390f35b34801561042e57600080fd5b50610437611190565b6040518082815260200191505060405180910390f35b60018054600181600116156101000203166002900480601f0160208091040260200160405190810160405280929190818152602001828054600181600116156101000203166002900480156104e35780601f106104b8576101008083540402835291602001916104e3565b820191906000526020600020905b8154815290600101906020018083116104c657829003601f168201915b505050505081565b60055481565b6000809054906101000a900473ffffffffffffffffffffffffffffffffffffffff1681565b6000806000809054906101000a900473ffffffffffffffffffffffffffffffffffffffff1690508073ffffffffffffffffffffffffffffffffffffffff1663fb99b86d336040518263ffffffff167c0100000000000000000000000000000000000000000000000000000000028152600401808273ffffffffffffffffffffffffffffffffffffffff1673ffffffffffffffffffffffffffffffffffffffff168152602001915050602060405180830381600087803b1580156105d857600080fd5b505af11580156105ec573d6000803e3d6000fd5b505050506040513d602081101561060257600080fd5b810190808051906020019092919050505015156106ad576040517f08c379a000000000000000000000000000000000000000000000000000000000815260040180806020018281038252602c8152602001807f4f6e6c79205472616e73666572204167656e742063616e20706572666f726d2081526020017f7468697320616374696f6e2e000000000000000000000000000000000000000081525060400191505060405180910390fd5b600460008673ffffffffffffffffffffffffffffffffffffffff1673ffffffffffffffffffffffffffffffffffffffff168152602001908152602001600020548311151515610764576040517f08c379a00000000000000000000000000000000000000000000000000000000081526004018080602001828103825260138152602001807f4e6f7420656e6f7567682062616c616e63652e0000000000000000000000000081525060200191505060405180910390fd5b600073ffffffffffffffffffffffffffffffffffffffff168473ffffffffffffffffffffffffffffffffffffffff1614151515610809576040517f08c379a00000000000000000000000000000000000000000000000000000000081526004018080602001828103825260118152602001807f5f746f206973206e6f742076616c69642e00000000000000000000000000000081525060200191505060405180910390fd5b61085b83600460008873ffffffffffffffffffffffffffffffffffffffff1673ffffffffffffffffffffffffffffffffffffffff1681526020019081526020016000205461119690919063ffffffff16565b600460008773ffffffffffffffffffffffffffffffffffffffff1673ffffffffffffffffffffffffffffffffffffffff168152602001908152602001600020819055506108f083600460008773ffffffffffffffffffffffffffffffffffffffff1673ffffffffffffffffffffffffffffffffffffffff168152602001908152602001600020546111af90919063ffffffff16565b600460008673ffffffffffffffffffffffffffffffffffffffff1673ffffffffffffffffffffffffffffffffffffffff168152602001908152602001600020819055508373ffffffffffffffffffffffffffffffffffffffff168573ffffffffffffffffffffffffffffffffffffffff167fddf252ad1be2c89b69c2b068fc378daa952ba7f163c4a11628f55a4df523b3ef856040518082815260200191505060405180910390a360019150509392505050565b600660009054906101000a900460ff1681565b6000806000809054906101000a900473ffffffffffffffffffffffffffffffffffffffff1690508073ffffffffffffffffffffffffffffffffffffffff1663fb99b86d336040518263ffffffff167c0100000000000000000000000000000000000000000000000000000000028152600401808273ffffffffffffffffffffffffffffffffffffffff1673ffffffffffffffffffffffffffffffffffffffff168152602001915050602060405180830381600087803b158015610a7957600080fd5b505af1158015610a8d573d6000803e3d6000fd5b505050506040513d6020811015610aa357600080fd5b81019080805190602001909291905050501515610b4e576040517f08c379a000000000000000000000000000000000000000000000000000000000815260040180806020018281038252602c8152602001807f4f6e6c79205472616e73666572204167656e742063616e20706572666f726d2081526020017f7468697320616374696f6e2e000000000000000000000000000000000000000081525060400191505060405180910390fd5b600073ffffffffffffffffffffffffffffffffffffffff168473ffffffffffffffffffffffffffffffffffffffff1614151515610bf3576040517f08c379a00000000000000000000000000000000000000000000000000000000081526004018080602001828103825260118152602001807f5f746f206973206e6f742076616c69642e00000000000000000000000000000081525060200191505060405180910390fd5b610c4583600460008773ffffffffffffffffffffffffffffffffffffffff1673ffffffffffffffffffffffffffffffffffffffff168152602001908152602001600020546111af90919063ffffffff16565b600460008673ffffffffffffffffffffffffffffffffffffffff1673ffffffffffffffffffffffffffffffffffffffff16815260200190815260200160002081905550610c9d836005546111af90919063ffffffff16565b6005819055508373ffffffffffffffffffffffffffffffffffffffff16600073ffffffffffffffffffffffffffffffffffffffff167fddf252ad1be2c89b69c2b068fc378daa952ba7f163c4a11628f55a4df523b3ef856040518082815260200191505060405180910390a3600191505092915050565b6000600460008373ffffffffffffffffffffffffffffffffffffffff1673ffffffffffffffffffffffffffffffffffffffff168152602001908152602001600020549050919050565b6000806000809054906101000a900473ffffffffffffffffffffffffffffffffffffffff1690508073ffffffffffffffffffffffffffffffffffffffff1663fb99b86d336040518263ffffffff167c0100000000000000000000000000000000000000000000000000000000028152600401808273ffffffffffffffffffffffffffffffffffffffff1673ffffffffffffffffffffffffffffffffffffffff168152602001915050602060405180830381600087803b158015610e1f57600080fd5b505af1158015610e33573d6000803e3d6000fd5b505050506040513d6020811015610e4957600080fd5b81019080805190602001909291905050501515610ef4576040517f08c379a000000000000000000000000000000000000000000000000000000000815260040180806020018281038252602c8152602001807f4f6e6c79205472616e73666572204167656e742063616e20706572666f726d2081526020017f7468697320616374696f6e2e000000000000000000000000000000000000000081525060400191505060405180910390fd5b600460008573ffffffffffffffffffffffffffffffffffffffff1673ffffffffffffffffffffffffffffffffffffffff168152602001908152602001600020548311151515610fd1576040517f08c379a00000000000000000000000000000000000000000000000000000000081526004018080602001828103825260268152602001807f5f76616c75652063616e6e6f742062652067726561746572207468616e20626181526020017f6c616e63652e000000000000000000000000000000000000000000000000000081525060400191505060405180910390fd5b61102383600460008773ffffffffffffffffffffffffffffffffffffffff1673ffffffffffffffffffffffffffffffffffffffff1681526020019081526020016000205461119690919063ffffffff16565b600460008673ffffffffffffffffffffffffffffffffffffffff1673ffffffffffffffffffffffffffffffffffffffff1681526020019081526020016000208190555061107b8360055461119690919063ffffffff16565b600581905550600073ffffffffffffffffffffffffffffffffffffffff168473ffffffffffffffffffffffffffffffffffffffff167fddf252ad1be2c89b69c2b068fc378daa952ba7f163c4a11628f55a4df523b3ef856040518082815260200191505060405180910390a3600191505092915050565b60028054600181600116156101000203166002900480601f0160208091040260200160405190810160405280929190818152602001828054600181600116156101000203166002900480156111885780601f1061115d57610100808354040283529160200191611188565b820191906000526020600020905b81548152906001019060200180831161116b57829003601f168201915b505050505081565b60035481565b60008282111515156111a457fe5b818303905092915050565b600081830190508281101515156111c257fe5b809050929150505600a165627a7a723058206e75ac95ffab9c36b1ad5d5d2946b5f1513e57d1be7b980a52a04723057b03d60029a165627a7a7230582011b6cc518e12542e33fb46443a531e395834f03f325f3bd9a39cdd981cca100e0029",
  "source": "pragma solidity ^0.4.24;\n\nimport \"../libs/TransferAgentControlled.sol\";\nimport \"../libs/Owned.sol\";\nimport \"./LDGRSecurity.sol\";\n\ncontract LDGRIssuer is Owned, TransferAgentControlled {\n    string public name;\n    string public stateFileNumber;\n    string public stateOfIncorporation;\n    string public physicalAddressOfOperation;\n    address[] securities;\n\n    event CreateSecurity(\n        address indexed newSecurity,\n        string name,\n        string symbol\n    );\n\n    event TransferAgentUpdated(\n        address indexed previousTransferAgent,\n        address indexed newTransferAgent\n    );\n\n    event PhysicalAddressOfOperationUpdated(\n        string previousPhysicalAddressOfOperation,\n        string newPhysicalAddressOfOperation\n    );\n\n    constructor (\n        address _initialOwner,\n        address _initialTransferAgent,\n        string _name,\n        string _stateFileNumber,\n        string _stateOfIncorporation,\n        string _physicalAddressOfOperation\n    ) Owned(_initialOwner) TransferAgentControlled(_initialTransferAgent) public {\n        name = _name;\n        stateFileNumber = _stateFileNumber;\n        stateOfIncorporation = _stateOfIncorporation;\n        physicalAddressOfOperation = _physicalAddressOfOperation;\n    }\n\n    function setTransferAgent(address _newTransferAgent) public onlyOwner {\n        _setTransferAgent(_newTransferAgent);\n    }\n\n    function setPhysicalAddressOfOperation(string _newPhysicalAddressOfOperation) public onlyOwner {\n        _setPhysicalAddressOfOperation(_newPhysicalAddressOfOperation);\n    }\n\n    function _setPhysicalAddressOfOperation(string _newPhysicalAddressOfOperation) internal {\n        emit PhysicalAddressOfOperationUpdated(physicalAddressOfOperation, _newPhysicalAddressOfOperation);\n        physicalAddressOfOperation = _newPhysicalAddressOfOperation;\n    }\n\n    function _setTransferAgent(address _newTransferAgent) internal {\n        require(_newTransferAgent != address(0), \"Address cannot be 0.\");\n        emit TransferAgentUpdated(transferAgent, _newTransferAgent);\n        transferAgent = _newTransferAgent;\n    }\n\n    function getSecurities() public view returns (address[]) {\n        return securities;\n    }\n\n    function createSecurity(string _name, string _symbol) public onlyTransferAgent returns (address) {\n        return _createSecurity(_name, _symbol);\n    }\n\n    function _createSecurity(string _name, string _symbol) internal returns (address) {\n        address newSecurity = new LDGRSecurity(this, _name, _symbol);\n        securities.push(newSecurity);\n        emit CreateSecurity(newSecurity, _name, _symbol);\n        return newSecurity;\n    }\n}",
  "sourcePath": "/Users/bmo/workspace/startengine/ldgr/v1/truffle/contracts/LDGRIssuer.sol",
  "compiler": {
    "name": "solc",
    "version": "0.4.24+commit.e67f0147.Emscripten.clang"
  },
  "schemaVersion": "2.0.1",
  "updatedAt": "2018-09-17T20:02:36.131Z"
}