{
  "contractName": "TransferAgentControlled",
  "abi": [
    {
      "constant": true,
      "inputs": [],
      "name": "transferAgent",
      "outputs": [
        {
          "name": "",
          "type": "address"
        }
      ],
      "payable": false,
      "stateMutability": "view",
      "type": "function"
    },
    {
      "inputs": [
        {
          "name": "_initialTransferAgent",
          "type": "address"
        }
      ],
      "payable": false,
      "stateMutability": "nonpayable",
      "type": "constructor"
    },
    {
      "constant": true,
      "inputs": [
        {
          "name": "_lookup",
          "type": "address"
        }
      ],
      "name": "isTransferAgent",
      "outputs": [
        {
          "name": "",
          "type": "bool"
        }
      ],
      "payable": false,
      "stateMutability": "view",
      "type": "function"
    }
  ],
  "bytecode": "0x608060405234801561001057600080fd5b5060405160208061023083398101806040528101908080519060200190929190505050806000806101000a81548173ffffffffffffffffffffffffffffffffffffffff021916908373ffffffffffffffffffffffffffffffffffffffff160217905550506101ad806100836000396000f30060806040526004361061004c576000357c0100000000000000000000000000000000000000000000000000000000900463ffffffff168063760cd8e114610051578063fb99b86d146100a8575b600080fd5b34801561005d57600080fd5b50610066610103565b604051808273ffffffffffffffffffffffffffffffffffffffff1673ffffffffffffffffffffffffffffffffffffffff16815260200191505060405180910390f35b3480156100b457600080fd5b506100e9600480360381019080803573ffffffffffffffffffffffffffffffffffffffff169060200190929190505050610128565b604051808215151515815260200191505060405180910390f35b6000809054906101000a900473ffffffffffffffffffffffffffffffffffffffff1681565b60008060009054906101000a900473ffffffffffffffffffffffffffffffffffffffff1673ffffffffffffffffffffffffffffffffffffffff168273ffffffffffffffffffffffffffffffffffffffff161490509190505600a165627a7a723058204433411accfc6dc27f54f4cef963a3885732de5acbd0ae46a0dac8856b46b5240029",
  "source": "pragma solidity ^0.4.23;\n\ncontract TransferAgentControlled {\n    address public transferAgent;\n\n    constructor(address _initialTransferAgent) public {\n        transferAgent = _initialTransferAgent;\n    }\n\n    modifier onlyTransferAgent() {\n        require(msg.sender == transferAgent, \"Only Transfer Agent can perform this action.\");\n        _;\n    }\n\n    function isTransferAgent(address _lookup) public view returns (bool) {\n        return _lookup == transferAgent;\n    }\n}",
  "sourcePath": "/Users/bmo/workspace/startengine/ldgr/v1/truffle/libs/TransferAgentControlled.sol",
  "compiler": {
    "name": "solc",
    "version": "0.4.24+commit.e67f0147.Emscripten.clang"
  },
  "schemaVersion": "2.0.1",
  "updatedAt": "2018-09-17T20:02:36.135Z"
}